{
  "contractName": "CanvasContract",
  "abi": [
    {
      "inputs": [
        {
          "internalType": "uint256",
          "name": "_maxPixels",
          "type": "uint256"
        }
      ],
      "stateMutability": "nonpayable",
      "type": "constructor"
    },
    {
      "anonymous": false,
      "inputs": [
        {
          "indexed": true,
          "internalType": "address",
          "name": "owner",
          "type": "address"
        },
        {
          "indexed": true,
          "internalType": "address",
          "name": "approved",
          "type": "address"
        },
        {
          "indexed": true,
          "internalType": "uint256",
          "name": "tokenId",
          "type": "uint256"
        }
      ],
      "name": "Approval",
      "type": "event"
    },
    {
      "anonymous": false,
      "inputs": [
        {
          "indexed": true,
          "internalType": "address",
          "name": "owner",
          "type": "address"
        },
        {
          "indexed": true,
          "internalType": "address",
          "name": "operator",
          "type": "address"
        },
        {
          "indexed": false,
          "internalType": "bool",
          "name": "approved",
          "type": "bool"
        }
      ],
      "name": "ApprovalForAll",
      "type": "event"
    },
    {
      "anonymous": false,
      "inputs": [
        {
          "indexed": false,
          "internalType": "address",
          "name": "winner",
          "type": "address"
        },
        {
          "indexed": false,
          "internalType": "uint256",
          "name": "amount",
          "type": "uint256"
        }
      ],
      "name": "AuctionEnded",
      "type": "event"
    },
    {
      "anonymous": false,
      "inputs": [
        {
          "indexed": false,
          "internalType": "uint256",
          "name": "auctionEndTime",
          "type": "uint256"
        }
      ],
      "name": "AuctionStarted",
      "type": "event"
    },
    {
      "anonymous": false,
      "inputs": [
        {
          "indexed": false,
          "internalType": "address",
          "name": "bidder",
          "type": "address"
        },
        {
          "indexed": false,
          "internalType": "uint256",
          "name": "amount",
          "type": "uint256"
        }
      ],
      "name": "BidPlaced",
      "type": "event"
    },
    {
      "anonymous": false,
      "inputs": [
        {
          "indexed": true,
          "internalType": "address",
          "name": "previousOwner",
          "type": "address"
        },
        {
          "indexed": true,
          "internalType": "address",
          "name": "newOwner",
          "type": "address"
        }
      ],
      "name": "OwnershipTransferred",
      "type": "event"
    },
    {
      "anonymous": false,
      "inputs": [
        {
          "indexed": true,
          "internalType": "address",
          "name": "from",
          "type": "address"
        },
        {
          "indexed": true,
          "internalType": "address",
          "name": "to",
          "type": "address"
        },
        {
          "indexed": true,
          "internalType": "uint256",
          "name": "tokenId",
          "type": "uint256"
        }
      ],
      "name": "Transfer",
      "type": "event"
    },
    {
      "inputs": [
        {
          "internalType": "address",
          "name": "to",
          "type": "address"
        },
        {
          "internalType": "uint256",
          "name": "tokenId",
          "type": "uint256"
        }
      ],
      "name": "approve",
      "outputs": [],
      "stateMutability": "nonpayable",
      "type": "function"
    },
    {
      "inputs": [],
      "name": "auctionEndTime",
      "outputs": [
        {
          "internalType": "uint256",
          "name": "",
          "type": "uint256"
        }
      ],
      "stateMutability": "view",
      "type": "function",
      "constant": true
    },
    {
      "inputs": [],
      "name": "auctionEnded",
      "outputs": [
        {
          "internalType": "bool",
          "name": "",
          "type": "bool"
        }
      ],
      "stateMutability": "view",
      "type": "function",
      "constant": true
    },
    {
      "inputs": [],
      "name": "auctionStarted",
      "outputs": [
        {
          "internalType": "bool",
          "name": "",
          "type": "bool"
        }
      ],
      "stateMutability": "view",
      "type": "function",
      "constant": true
    },
    {
      "inputs": [
        {
          "internalType": "address",
          "name": "owner",
          "type": "address"
        }
      ],
      "name": "balanceOf",
      "outputs": [
        {
          "internalType": "uint256",
          "name": "",
          "type": "uint256"
        }
      ],
      "stateMutability": "view",
      "type": "function",
      "constant": true
    },
    {
      "inputs": [],
      "name": "canvasWinner",
      "outputs": [
        {
          "internalType": "address",
          "name": "",
          "type": "address"
        }
      ],
      "stateMutability": "view",
      "type": "function",
      "constant": true
    },
    {
      "inputs": [
        {
          "internalType": "uint256",
          "name": "tokenId",
          "type": "uint256"
        }
      ],
      "name": "getApproved",
      "outputs": [
        {
          "internalType": "address",
          "name": "",
          "type": "address"
        }
      ],
      "stateMutability": "view",
      "type": "function",
      "constant": true
    },
    {
      "inputs": [],
      "name": "highestBid",
      "outputs": [
        {
          "internalType": "uint256",
          "name": "",
          "type": "uint256"
        }
      ],
      "stateMutability": "view",
      "type": "function",
      "constant": true
    },
    {
      "inputs": [],
      "name": "highestBidder",
      "outputs": [
        {
          "internalType": "address",
          "name": "",
          "type": "address"
        }
      ],
      "stateMutability": "view",
      "type": "function",
      "constant": true
    },
    {
      "inputs": [
        {
          "internalType": "address",
          "name": "owner",
          "type": "address"
        },
        {
          "internalType": "address",
          "name": "operator",
          "type": "address"
        }
      ],
      "name": "isApprovedForAll",
      "outputs": [
        {
          "internalType": "bool",
          "name": "",
          "type": "bool"
        }
      ],
      "stateMutability": "view",
      "type": "function",
      "constant": true
    },
    {
      "inputs": [],
      "name": "maxPixels",
      "outputs": [
        {
          "internalType": "uint256",
          "name": "",
          "type": "uint256"
        }
      ],
      "stateMutability": "view",
      "type": "function",
      "constant": true
    },
    {
      "inputs": [],
      "name": "mintingContract",
      "outputs": [
        {
          "internalType": "address",
          "name": "",
          "type": "address"
        }
      ],
      "stateMutability": "view",
      "type": "function",
      "constant": true
    },
    {
      "inputs": [],
      "name": "name",
      "outputs": [
        {
          "internalType": "string",
          "name": "",
          "type": "string"
        }
      ],
      "stateMutability": "view",
      "type": "function",
      "constant": true
    },
    {
      "inputs": [],
      "name": "owner",
      "outputs": [
        {
          "internalType": "address",
          "name": "",
          "type": "address"
        }
      ],
      "stateMutability": "view",
      "type": "function",
      "constant": true
    },
    {
      "inputs": [
        {
          "internalType": "uint256",
          "name": "tokenId",
          "type": "uint256"
        }
      ],
      "name": "ownerOf",
      "outputs": [
        {
          "internalType": "address",
          "name": "",
          "type": "address"
        }
      ],
      "stateMutability": "view",
      "type": "function",
      "constant": true
    },
    {
      "inputs": [],
      "name": "pixelCounter",
      "outputs": [
        {
          "internalType": "uint256",
          "name": "",
          "type": "uint256"
        }
      ],
      "stateMutability": "view",
      "type": "function",
      "constant": true
    },
    {
      "inputs": [
        {
          "internalType": "uint256",
          "name": "",
          "type": "uint256"
        }
      ],
      "name": "pixels",
      "outputs": [
        {
          "internalType": "uint256",
          "name": "x",
          "type": "uint256"
        },
        {
          "internalType": "uint256",
          "name": "y",
          "type": "uint256"
        },
        {
          "internalType": "enum CanvasContract.PixelColor",
          "name": "color",
          "type": "uint8"
        },
        {
          "internalType": "address",
          "name": "owner",
          "type": "address"
        }
      ],
      "stateMutability": "view",
      "type": "function",
      "constant": true
    },
    {
      "inputs": [],
      "name": "renounceOwnership",
      "outputs": [],
      "stateMutability": "nonpayable",
      "type": "function"
    },
    {
      "inputs": [
        {
          "internalType": "address",
          "name": "from",
          "type": "address"
        },
        {
          "internalType": "address",
          "name": "to",
          "type": "address"
        },
        {
          "internalType": "uint256",
          "name": "tokenId",
          "type": "uint256"
        }
      ],
      "name": "safeTransferFrom",
      "outputs": [],
      "stateMutability": "nonpayable",
      "type": "function"
    },
    {
      "inputs": [
        {
          "internalType": "address",
          "name": "from",
          "type": "address"
        },
        {
          "internalType": "address",
          "name": "to",
          "type": "address"
        },
        {
          "internalType": "uint256",
          "name": "tokenId",
          "type": "uint256"
        },
        {
          "internalType": "bytes",
          "name": "data",
          "type": "bytes"
        }
      ],
      "name": "safeTransferFrom",
      "outputs": [],
      "stateMutability": "nonpayable",
      "type": "function"
    },
    {
      "inputs": [
        {
          "internalType": "address",
          "name": "operator",
          "type": "address"
        },
        {
          "internalType": "bool",
          "name": "approved",
          "type": "bool"
        }
      ],
      "name": "setApprovalForAll",
      "outputs": [],
      "stateMutability": "nonpayable",
      "type": "function"
    },
    {
      "inputs": [
        {
          "internalType": "bytes4",
          "name": "interfaceId",
          "type": "bytes4"
        }
      ],
      "name": "supportsInterface",
      "outputs": [
        {
          "internalType": "bool",
          "name": "",
          "type": "bool"
        }
      ],
      "stateMutability": "view",
      "type": "function",
      "constant": true
    },
    {
      "inputs": [],
      "name": "symbol",
      "outputs": [
        {
          "internalType": "string",
          "name": "",
          "type": "string"
        }
      ],
      "stateMutability": "view",
      "type": "function",
      "constant": true
    },
    {
      "inputs": [],
      "name": "tokenIdCounter",
      "outputs": [
        {
          "internalType": "uint256",
          "name": "",
          "type": "uint256"
        }
      ],
      "stateMutability": "view",
      "type": "function",
      "constant": true
    },
    {
      "inputs": [
        {
          "internalType": "uint256",
          "name": "tokenId",
          "type": "uint256"
        }
      ],
      "name": "tokenURI",
      "outputs": [
        {
          "internalType": "string",
          "name": "",
          "type": "string"
        }
      ],
      "stateMutability": "view",
      "type": "function",
      "constant": true
    },
    {
      "inputs": [
        {
          "internalType": "address",
          "name": "from",
          "type": "address"
        },
        {
          "internalType": "address",
          "name": "to",
          "type": "address"
        },
        {
          "internalType": "uint256",
          "name": "tokenId",
          "type": "uint256"
        }
      ],
      "name": "transferFrom",
      "outputs": [],
      "stateMutability": "nonpayable",
      "type": "function"
    },
    {
      "inputs": [
        {
          "internalType": "address",
          "name": "newOwner",
          "type": "address"
        }
      ],
      "name": "transferOwnership",
      "outputs": [],
      "stateMutability": "nonpayable",
      "type": "function"
    },
    {
      "inputs": [
        {
          "internalType": "bytes32",
          "name": "",
          "type": "bytes32"
        }
      ],
      "name": "usedCoordinates",
      "outputs": [
        {
          "internalType": "bool",
          "name": "",
          "type": "bool"
        }
      ],
      "stateMutability": "view",
      "type": "function",
      "constant": true
    },
    {
      "inputs": [
        {
          "internalType": "address",
          "name": "_mintingContract",
          "type": "address"
        }
      ],
      "name": "setMintingContract",
      "outputs": [],
      "stateMutability": "nonpayable",
      "type": "function"
    },
    {
      "inputs": [
        {
          "internalType": "uint256",
          "name": "tokenId",
          "type": "uint256"
        },
        {
          "internalType": "address",
          "name": "owner",
          "type": "address"
        }
      ],
      "name": "addPixel",
      "outputs": [],
      "stateMutability": "nonpayable",
      "type": "function"
    },
    {
      "inputs": [],
      "name": "generateCanvasSVG",
      "outputs": [
        {
          "internalType": "string",
          "name": "",
          "type": "string"
        }
      ],
      "stateMutability": "view",
      "type": "function",
      "constant": true
    },
    {
      "inputs": [],
      "name": "bid",
      "outputs": [],
      "stateMutability": "payable",
      "type": "function",
      "payable": true
    },
    {
      "inputs": [],
      "name": "endAuction",
      "outputs": [],
      "stateMutability": "nonpayable",
      "type": "function"
    },
    {
      "inputs": [],
      "name": "withdraw",
      "outputs": [],
      "stateMutability": "nonpayable",
      "type": "function"
    }
  ],
  "bytecode": "0x60806040523480156200001157600080fd5b50604051620026723803806200267283398101604081905262000034916200011c565b6040518060400160405280600d81526020016c4f6e436861696e43616e76617360981b815250604051806040016040528060038152602001624f434360e81b8152508160009081620000879190620001db565b506001620000968282620001db565b505050620000b3620000ad620000c660201b60201c565b620000ca565b60075560006008819055601055620002a7565b3390565b600680546001600160a01b038381166001600160a01b0319831681179093556040519116919082907f8be0079c531659141344cd1fd0a4f28419497f9722a3daafe3b4186f6b6457e090600090a35050565b6000602082840312156200012f57600080fd5b5051919050565b634e487b7160e01b600052604160045260246000fd5b600181811c908216806200016157607f821691505b6020821081036200018257634e487b7160e01b600052602260045260246000fd5b50919050565b601f821115620001d657600081815260208120601f850160051c81016020861015620001b15750805b601f850160051c820191505b81811015620001d257828155600101620001bd565b5050505b505050565b81516001600160401b03811115620001f757620001f762000136565b6200020f816200020884546200014c565b8462000188565b602080601f8311600181146200024757600084156200022e5750858301515b600019600386901b1c1916600185901b178555620001d2565b600085815260208120601f198616915b82811015620002785788860151825594840194600190910190840162000257565b5085821015620002975787850151600019600388901b60f8161c191681555b5050505050600190811b01905550565b6123bb80620002b76000396000f3fe6080604052600436106101f95760003560e01c806391f901571161010d578063cb522337116100a0578063e985e9c51161006f578063e985e9c5146105bf578063ee2679bc146105df578063f2fde38b14610600578063f3e4160c14610620578063fe67a54b1461063657600080fd5b8063cb52233714610544578063cbab505614610559578063d2f6f67d14610589578063d57bde79146105a957600080fd5b8063a9eac3e4116100dc578063a9eac3e4146104c4578063b88d4fde146104e4578063c56e137514610504578063c87b56dd1461052457600080fd5b806391f901571461045957806395d89b411461047957806398bdf6f51461048e578063a22cb465146104a457600080fd5b806342842e0e11610190578063715018a61161015f578063715018a61461039057806386433374146103a55780638da5cb5b146103c65780638da7f232146103e45780638f650bd31461044357600080fd5b806342842e0e1461030c5780634b449cba1461032c5780636352211e1461035057806370a082311461037057600080fd5b80631998aeef116101cc5780631998aeef146102af5780631f4a8cb5146102b757806323b872dd146102d75780633ccfd60b146102f757600080fd5b806301ffc9a7146101fe57806306fdde0314610233578063081812fc14610255578063095ea7b31461028d575b600080fd5b34801561020a57600080fd5b5061021e610219366004611cfc565b61064b565b60405190151581526020015b60405180910390f35b34801561023f57600080fd5b5061024861069d565b60405161022a9190611d69565b34801561026157600080fd5b50610275610270366004611d7c565b61072f565b6040516001600160a01b03909116815260200161022a565b34801561029957600080fd5b506102ad6102a8366004611dac565b610756565b005b6102ad610870565b3480156102c357600080fd5b50600f54610275906001600160a01b031681565b3480156102e357600080fd5b506102ad6102f2366004611dd6565b6109f8565b34801561030357600080fd5b506102ad610a29565b34801561031857600080fd5b506102ad610327366004611dd6565b610a6d565b34801561033857600080fd5b5061034260095481565b60405190815260200161022a565b34801561035c57600080fd5b5061027561036b366004611d7c565b610a88565b34801561037c57600080fd5b5061034261038b366004611e12565b610ae8565b34801561039c57600080fd5b506102ad610b6e565b3480156103b157600080fd5b50600b5461021e90600160a81b900460ff1681565b3480156103d257600080fd5b506006546001600160a01b0316610275565b3480156103f057600080fd5b506104336103ff366004611d7c565b600d6020526000908152604090208054600182015460029092015490919060ff81169061010090046001600160a01b031684565b60405161022a9493929190611e43565b34801561044f57600080fd5b5061034260085481565b34801561046557600080fd5b50600b54610275906001600160a01b031681565b34801561048557600080fd5b50610248610b82565b34801561049a57600080fd5b5061034260105481565b3480156104b057600080fd5b506102ad6104bf366004611e8f565b610b91565b3480156104d057600080fd5b506102ad6104df366004611ecb565b610ba0565b3480156104f057600080fd5b506102ad6104ff366004611f0d565b610d6a565b34801561051057600080fd5b506102ad61051f366004611e12565b610da2565b34801561053057600080fd5b5061024861053f366004611d7c565b610dcc565b34801561055057600080fd5b50610248610e40565b34801561056557600080fd5b5061021e610574366004611d7c565b600e6020526000908152604090205460ff1681565b34801561059557600080fd5b50600c54610275906001600160a01b031681565b3480156105b557600080fd5b50610342600a5481565b3480156105cb57600080fd5b5061021e6105da366004611fe9565b610fa6565b3480156105eb57600080fd5b50600b5461021e90600160a01b900460ff1681565b34801561060c57600080fd5b506102ad61061b366004611e12565b610fd4565b34801561062c57600080fd5b5061034260075481565b34801561064257600080fd5b506102ad61104a565b60006001600160e01b031982166380ac58cd60e01b148061067c57506001600160e01b03198216635b5e139f60e01b145b8061069757506301ffc9a760e01b6001600160e01b03198316145b92915050565b6060600080546106ac90612013565b80601f01602080910402602001604051908101604052809291908181526020018280546106d890612013565b80156107255780601f106106fa57610100808354040283529160200191610725565b820191906000526020600020905b81548152906001019060200180831161070857829003601f168201915b5050505050905090565b600061073a826111fa565b506000908152600460205260409020546001600160a01b031690565b600061076182610a88565b9050806001600160a01b0316836001600160a01b0316036107d35760405162461bcd60e51b815260206004820152602160248201527f4552433732313a20617070726f76616c20746f2063757272656e74206f776e656044820152603960f91b60648201526084015b60405180910390fd5b336001600160a01b03821614806107ef57506107ef8133610fa6565b6108615760405162461bcd60e51b815260206004820152603d60248201527f4552433732313a20617070726f76652063616c6c6572206973206e6f7420746f60448201527f6b656e206f776e6572206f7220617070726f76656420666f7220616c6c00000060648201526084016107ca565b61086b8383611259565b505050565b600b54600160a01b900460ff166108c95760405162461bcd60e51b815260206004820152601760248201527f41756374696f6e20686173206e6f74207374617274656400000000000000000060448201526064016107ca565b60095442111561090f5760405162461bcd60e51b8152602060048201526011602482015270105d58dd1a5bdb881a185cc8195b991959607a1b60448201526064016107ca565b600a5434116109515760405162461bcd60e51b815260206004820152600e60248201526d42696420697320746f6f206c6f7760901b60448201526064016107ca565b600b546001600160a01b0316156109a057600b54600a546040516001600160a01b039092169181156108fc0291906000818181858888f1935050505015801561099e573d6000803e3d6000fd5b505b34600a819055600b80546001600160a01b031916339081179091556040805191825260208201929092527f3fabff0a9c3ecd6814702e247fa9733e5d0aa69e3a38590f92cb18f623a2254d91015b60405180910390a1565b610a0233826112c7565b610a1e5760405162461bcd60e51b81526004016107ca90612047565b61086b838383611326565b610a3161148a565b6006546040516001600160a01b03909116904780156108fc02916000818181858888f19350505050158015610a6a573d6000803e3d6000fd5b50565b61086b83838360405180602001604052806000815250610d6a565b6000818152600260205260408120546001600160a01b0316806106975760405162461bcd60e51b8152602060048201526018602482015277115490cdcc8c4e881a5b9d985b1a59081d1bdad95b88125160421b60448201526064016107ca565b60006001600160a01b038216610b525760405162461bcd60e51b815260206004820152602960248201527f4552433732313a2061646472657373207a65726f206973206e6f7420612076616044820152683634b21037bbb732b960b91b60648201526084016107ca565b506001600160a01b031660009081526003602052604090205490565b610b7661148a565b610b8060006114e4565b565b6060600180546106ac90612013565b610b9c338383611536565b5050565b600c546001600160a01b03163314610c135760405162461bcd60e51b815260206004820152603060248201527f4f6e6c7920746865206d696e74696e6720636f6e74726163742063616e20636160448201526f3636103a3434b990333ab731ba34b7b760811b60648201526084016107ca565b60075460085410610c5f5760405162461bcd60e51b815260206004820152601660248201527510d85b9d985cc81a5cc8185b1c9958591e48199d5b1b60521b60448201526064016107ca565b600080610c6a611604565b915091506000610c7985611724565b90506040518060800160405280848152602001838152602001826002811115610ca457610ca4611e2d565b81526001600160a01b0386166020918201526008546000908152600d8252604090819020835181559183015160018084019190915590830151600280840180549293909260ff1916918490811115610cfe57610cfe611e2d565b021790555060609190910151600290910180546001600160a01b0390921661010002610100600160a81b031990921691909117905560088054906000610d43836120aa565b919050555060075460085403610d6357610d5b611765565b610d63611771565b5050505050565b610d7433836112c7565b610d905760405162461bcd60e51b81526004016107ca90612047565b610d9c84848484611820565b50505050565b610daa61148a565b600c80546001600160a01b0319166001600160a01b0392909216919091179055565b6060610dd7826111fa565b6000610dee60408051602081019091526000815290565b90506000815111610e0e5760405180602001604052806000815250610e39565b80610e1884611853565b604051602001610e299291906120c3565b6040516020818303038152906040525b9392505050565b606060006040518060800160405280605c815260200161232a605c913960408051808201825260068152651e17b9bb339f60d11b60208083019190915282519081019092526000808352929350915b600854811015610f79576000818152600d60209081526040808320815160808101835281548152600182015493810193909352600280820154919284019160ff1690811115610ee057610ee0611e2d565b6002811115610ef157610ef1611e2d565b81526002919091015461010090046001600160a01b03166020909101526040810151909150600090610f22906118e6565b905083610f328360000151611853565b610f3f8460200151611853565b83604051602001610f5394939291906120f2565b604051602081830303815290604052935050508080610f71906120aa565b915050610e8f565b50828183604051602001610f8f939291906121a9565b604051602081830303815290604052935050505090565b6001600160a01b03918216600090815260056020908152604080832093909416825291909152205460ff1690565b610fdc61148a565b6001600160a01b0381166110415760405162461bcd60e51b815260206004820152602660248201527f4f776e61626c653a206e6577206f776e657220697320746865207a65726f206160448201526564647265737360d01b60648201526084016107ca565b610a6a816114e4565b600b54600160a01b900460ff166110995760405162461bcd60e51b8152602060048201526013602482015272105d58dd1a5bdb881b9bdd081cdd185c9d1959606a1b60448201526064016107ca565b6009544210156110e35760405162461bcd60e51b8152602060048201526015602482015274105d58dd1a5bdb881b9bdd08195b991959081e595d605a1b60448201526064016107ca565b600b54600160a81b900460ff16156111355760405162461bcd60e51b8152602060048201526015602482015274105d58dd1a5bdb88185b1c9958591e48195b991959605a1b60448201526064016107ca565b600b805460ff60a81b198116600160a81b17909155600f80546001600160a01b0319166001600160a01b039092169182179055601054611176913091611326565b600654600a546040516001600160a01b039092169181156108fc0291906000818181858888f193505050501580156111b2573d6000803e3d6000fd5b50600b54600a54604080516001600160a01b03909316835260208301919091527fdaec4582d5d9595688c8c98545fdd1c696d41c6aeaeb636737e84ed2f5c00eda91016109ee565b6000818152600260205260409020546001600160a01b0316610a6a5760405162461bcd60e51b8152602060048201526018602482015277115490cdcc8c4e881a5b9d985b1a59081d1bdad95b88125160421b60448201526064016107ca565b600081815260046020526040902080546001600160a01b0319166001600160a01b038416908117909155819061128e82610a88565b6001600160a01b03167f8c5be1e5ebec7d5bd14f71427d1e84f3dd0314c0f7b2291e5b200ac8c7c3b92560405160405180910390a45050565b6000806112d383610a88565b9050806001600160a01b0316846001600160a01b031614806112fa57506112fa8185610fa6565b8061131e5750836001600160a01b03166113138461072f565b6001600160a01b0316145b949350505050565b826001600160a01b031661133982610a88565b6001600160a01b03161461135f5760405162461bcd60e51b81526004016107ca906121ec565b6001600160a01b0382166113c15760405162461bcd60e51b8152602060048201526024808201527f4552433732313a207472616e7366657220746f20746865207a65726f206164646044820152637265737360e01b60648201526084016107ca565b826001600160a01b03166113d482610a88565b6001600160a01b0316146113fa5760405162461bcd60e51b81526004016107ca906121ec565b600081815260046020908152604080832080546001600160a01b03199081169091556001600160a01b0387811680865260038552838620805460001901905590871680865283862080546001019055868652600290945282852080549092168417909155905184937fddf252ad1be2c89b69c2b068fc378daa952ba7f163c4a11628f55a4df523b3ef91a4505050565b6006546001600160a01b03163314610b805760405162461bcd60e51b815260206004820181905260248201527f4f776e61626c653a2063616c6c6572206973206e6f7420746865206f776e657260448201526064016107ca565b600680546001600160a01b038381166001600160a01b0319831681179093556040519116919082907f8be0079c531659141344cd1fd0a4f28419497f9722a3daafe3b4186f6b6457e090600090a35050565b816001600160a01b0316836001600160a01b0316036115975760405162461bcd60e51b815260206004820152601960248201527f4552433732313a20617070726f766520746f2063616c6c65720000000000000060448201526064016107ca565b6001600160a01b03838116600081815260056020908152604080832094871680845294825291829020805460ff191686151590811790915591519182527f17307eab39ab6107e8899845ad3d59bd9653f200f220920489ca2b5937696c31910160405180910390a3505050565b6000806015808280805b600854604080514460208201524291810191909152606081019190915285906080016040516020818303038152906040528051906020012060001c6116539190612231565b61165e906032612253565b92508344426008546001611672919061226a565b60408051602081019490945283019190915260608201526080016040516020818303038152906040528051906020012060001c6116af9190612231565b6116ba906032612253565b604080516020810186905290810182905290925060600160408051601f1981840301815291815281516020928301206000818152600e90935291205490915060ff1661160e576000908152600e60205260409020805460ff19166001179055909590945092505050565b600080611732600384612231565b9050806000036117455750600092915050565b806001036117565750600192915050565b50600292915050565b50919050565b610b8030601054611982565b600b54600160a01b900460ff16156117cb5760405162461bcd60e51b815260206004820152601760248201527f41756374696f6e20616c7265616479207374617274656400000000000000000060448201526064016107ca565b600b805460ff60a01b1916600160a01b1790556117eb4262093a8061226a565b60098190556040519081527f1bb96dff6ab5005aff98cdc0cf176bb7d8e0423cb48e02217d35b042cec81e9f906020016109ee565b61182b848484611326565b61183784848484611b0d565b610d9c5760405162461bcd60e51b81526004016107ca9061227d565b6060600061186083611c0e565b600101905060008167ffffffffffffffff81111561188057611880611ef7565b6040519080825280601f01601f1916602001820160405280156118aa576020820181803683370190505b5090508181016020015b600019016f181899199a1a9b1b9c1cb0b131b232b360811b600a86061a8153600a85049450846118b457509392505050565b606060008260028111156118fc576118fc611e2d565b03611922575050604080518082019091526005815264776869746560d81b602082015290565b600182600281111561193657611936611e2d565b0361195b575050604080518082019091526004815263626c756560e01b602082015290565b50506040805180820190915260068152656f72616e676560d01b602082015290565b919050565b6001600160a01b0382166119d85760405162461bcd60e51b815260206004820181905260248201527f4552433732313a206d696e7420746f20746865207a65726f206164647265737360448201526064016107ca565b6000818152600260205260409020546001600160a01b031615611a3d5760405162461bcd60e51b815260206004820152601c60248201527f4552433732313a20746f6b656e20616c7265616479206d696e7465640000000060448201526064016107ca565b6000818152600260205260409020546001600160a01b031615611aa25760405162461bcd60e51b815260206004820152601c60248201527f4552433732313a20746f6b656e20616c7265616479206d696e7465640000000060448201526064016107ca565b6001600160a01b038216600081815260036020908152604080832080546001019055848352600290915280822080546001600160a01b0319168417905551839291907fddf252ad1be2c89b69c2b068fc378daa952ba7f163c4a11628f55a4df523b3ef908290a45050565b60006001600160a01b0384163b15611c0357604051630a85bd0160e11b81526001600160a01b0385169063150b7a0290611b519033908990889088906004016122cf565b6020604051808303816000875af1925050508015611b8c575060408051601f3d908101601f19168201909252611b899181019061230c565b60015b611be9573d808015611bba576040519150601f19603f3d011682016040523d82523d6000602084013e611bbf565b606091505b508051600003611be15760405162461bcd60e51b81526004016107ca9061227d565b805181602001fd5b6001600160e01b031916630a85bd0160e11b14905061131e565b506001949350505050565b60008072184f03e93ff9f4daa797ed6e38ed64bf6a1f0160401b8310611c4d5772184f03e93ff9f4daa797ed6e38ed64bf6a1f0160401b830492506040015b6d04ee2d6d415b85acef81000000008310611c79576d04ee2d6d415b85acef8100000000830492506020015b662386f26fc100008310611c9757662386f26fc10000830492506010015b6305f5e1008310611caf576305f5e100830492506008015b6127108310611cc357612710830492506004015b60648310611cd5576064830492506002015b600a83106106975760010192915050565b6001600160e01b031981168114610a6a57600080fd5b600060208284031215611d0e57600080fd5b8135610e3981611ce6565b60005b83811015611d34578181015183820152602001611d1c565b50506000910152565b60008151808452611d55816020860160208601611d19565b601f01601f19169290920160200192915050565b602081526000610e396020830184611d3d565b600060208284031215611d8e57600080fd5b5035919050565b80356001600160a01b038116811461197d57600080fd5b60008060408385031215611dbf57600080fd5b611dc883611d95565b946020939093013593505050565b600080600060608486031215611deb57600080fd5b611df484611d95565b9250611e0260208501611d95565b9150604084013590509250925092565b600060208284031215611e2457600080fd5b610e3982611d95565b634e487b7160e01b600052602160045260246000fd5b848152602081018490526080810160038410611e6f57634e487b7160e01b600052602160045260246000fd5b60408201939093526001600160a01b039190911660609091015292915050565b60008060408385031215611ea257600080fd5b611eab83611d95565b915060208301358015158114611ec057600080fd5b809150509250929050565b60008060408385031215611ede57600080fd5b82359150611eee60208401611d95565b90509250929050565b634e487b7160e01b600052604160045260246000fd5b60008060008060808587031215611f2357600080fd5b611f2c85611d95565b9350611f3a60208601611d95565b925060408501359150606085013567ffffffffffffffff80821115611f5e57600080fd5b818701915087601f830112611f7257600080fd5b813581811115611f8457611f84611ef7565b604051601f8201601f19908116603f01168101908382118183101715611fac57611fac611ef7565b816040528281528a6020848701011115611fc557600080fd5b82602086016020830137600060208483010152809550505050505092959194509250565b60008060408385031215611ffc57600080fd5b61200583611d95565b9150611eee60208401611d95565b600181811c9082168061202757607f821691505b60208210810361175f57634e487b7160e01b600052602260045260246000fd5b6020808252602d908201527f4552433732313a2063616c6c6572206973206e6f7420746f6b656e206f776e6560408201526c1c881bdc88185c1c1c9bdd9959609a1b606082015260800190565b634e487b7160e01b600052601160045260246000fd5b6000600182016120bc576120bc612094565b5060010190565b600083516120d5818460208801611d19565b8351908301906120e9818360208801611d19565b01949350505050565b6000855160206121058285838b01611d19565b7f3c726563742077696474683d27353027206865696768743d2735302720783d27918401918252865161213d81838501848b01611d19565b642720793d2760d81b92018181019290925285516121618160258501898501611d19565b67272066696c6c3d2760c01b60259390910192830152845161218981602d8501848901611d19565b631390179f60e11b920101600d8101919091526011019695505050505050565b600084516121bb818460208901611d19565b8451908301906121cf818360208901611d19565b84519101906121e2818360208801611d19565b0195945050505050565b60208082526025908201527f4552433732313a207472616e736665722066726f6d20696e636f72726563742060408201526437bbb732b960d91b606082015260800190565b60008261224e57634e487b7160e01b600052601260045260246000fd5b500690565b808202811582820484141761069757610697612094565b8082018082111561069757610697612094565b60208082526032908201527f4552433732313a207472616e7366657220746f206e6f6e20455243373231526560408201527131b2b4bb32b91034b6b83632b6b2b73a32b960711b606082015260800190565b6001600160a01b038581168252841660208201526040810183905260806060820181905260009061230290830184611d3d565b9695505050505050565b60006020828403121561231e57600080fd5b8151610e3981611ce656fe3c73766720786d6c6e733d27687474703a2f2f7777772e77332e6f72672f323030302f737667272077696474683d273130383027206865696768743d273130383027207374796c653d276261636b67726f756e643a626c61636b273ea264697066735822122093e8aaa037f2faa9e87d386491f23e49a3a19c9233576ba820f41c05c29cd0f064736f6c63430008130033",
  "immutableReferences": {},
  "source": "// SPDX-License-Identifier: MIT\npragma solidity ^0.8.0;\n\nimport \"@openzeppelin/contracts/token/ERC721/ERC721.sol\";\nimport \"@openzeppelin/contracts/access/Ownable.sol\";\nimport \"@openzeppelin/contracts/utils/Strings.sol\";\n\ncontract CanvasContract is ERC721, Ownable {\n\tuint256 public maxPixels;\n\tuint256 public pixelCounter;\n\tuint256 public auctionEndTime;\n\tuint256 public highestBid;\n\taddress public highestBidder;\n\tbool public auctionStarted;\n\tbool public auctionEnded;\n\taddress public mintingContract;\n\n\tenum PixelColor {\n\t\tWHITE,\n\t\tBLUE,\n\t\tORANGE\n\t}\n\n\tstruct Pixel {\n\t\tuint256 x;\n\t\tuint256 y;\n\t\tPixelColor color;\n\t\taddress owner;\n\t}\n\n\tmapping(uint256 => Pixel) public pixels;\n\tmapping(bytes32 => bool) public usedCoordinates;\n\taddress public canvasWinner;\n\tuint256 public tokenIdCounter;\n\n\tevent AuctionStarted(uint256 auctionEndTime);\n\tevent BidPlaced(address bidder, uint256 amount);\n\tevent AuctionEnded(address winner, uint256 amount);\n\n\tconstructor(uint256 _maxPixels) ERC721(\"OnChainCanvas\", \"OCC\") {\n\t\tmaxPixels = _maxPixels;\n\t\tpixelCounter = 0;\n\t\ttokenIdCounter = 0;\n\t}\n\n\tfunction setMintingContract(address _mintingContract) external onlyOwner {\n\t\tmintingContract = _mintingContract;\n\t}\n\n\tfunction addPixel(uint256 tokenId, address owner) external {\n\t\trequire(\n\t\t\tmsg.sender == mintingContract,\n\t\t\t\"Only the minting contract can call this function\"\n\t\t);\n\t\trequire(pixelCounter < maxPixels, \"Canvas is already full\");\n\n\t\t(uint256 x, uint256 y) = getRandomPosition();\n\t\tPixelColor color = getColorFromTokenId(tokenId);\n\n\t\tpixels[pixelCounter] = Pixel(x, y, color, owner);\n\t\tpixelCounter++;\n\n\t\tif (pixelCounter == maxPixels) {\n\t\t\tmintCanvas();\n\t\t\tstartAuction();\n\t\t}\n\t}\n\n\tfunction getColorFromTokenId(\n\t\tuint256 tokenId\n\t) internal pure returns (PixelColor) {\n\t\tuint256 modResult = tokenId % 3;\n\t\tif (modResult == 0) {\n\t\t\treturn PixelColor.WHITE;\n\t\t} else if (modResult == 1) {\n\t\t\treturn PixelColor.BLUE;\n\t\t} else {\n\t\t\treturn PixelColor.ORANGE;\n\t\t}\n\t}\n\n\tfunction getRandomPosition() internal returns (uint256, uint256) {\n\t\tuint256 gridWidth = 21;\n\t\tuint256 gridHeight = 21;\n\n\t\tuint256 x;\n\t\tuint256 y;\n\n\t\tbytes32 positionHash;\n\n\t\tdo {\n\t\t\tx =\n\t\t\t\t(uint256(\n\t\t\t\t\tkeccak256(\n\t\t\t\t\t\tabi.encodePacked(block.prevrandao, block.timestamp, pixelCounter)\n\t\t\t\t\t)\n\t\t\t\t) % gridWidth) *\n\t\t\t\t50;\n\t\t\ty =\n\t\t\t\t(uint256(\n\t\t\t\t\tkeccak256(\n\t\t\t\t\t\tabi.encodePacked(\n\t\t\t\t\t\t\tblock.prevrandao,\n\t\t\t\t\t\t\tblock.timestamp,\n\t\t\t\t\t\t\tpixelCounter + 1\n\t\t\t\t\t\t)\n\t\t\t\t\t)\n\t\t\t\t) % gridHeight) *\n\t\t\t\t50;\n\t\t\tpositionHash = keccak256(abi.encodePacked(x, y));\n\t\t} while (usedCoordinates[positionHash]);\n\n\t\tusedCoordinates[positionHash] = true;\n\n\t\treturn (x, y);\n\t}\n\n\tfunction generateCanvasSVG() public view returns (string memory) {\n\t\tstring\n\t\t\tmemory svgStart = \"<svg xmlns='http://www.w3.org/2000/svg' width='1080' height='1080' style='background:black'>\";\n\t\tstring memory svgEnd = \"</svg>\";\n\t\tstring memory svgContent = \"\";\n\n\t\tfor (uint256 i = 0; i < pixelCounter; i++) {\n\t\t\tPixel memory p = pixels[i];\n\t\t\tstring memory color = getColorString(p.color);\n\n\t\t\tsvgContent = string(\n\t\t\t\tabi.encodePacked(\n\t\t\t\t\tsvgContent,\n\t\t\t\t\t\"<rect width='50' height='50' x='\",\n\t\t\t\t\tStrings.toString(p.x),\n\t\t\t\t\t\"' y='\",\n\t\t\t\t\tStrings.toString(p.y),\n\t\t\t\t\t\"' fill='\",\n\t\t\t\t\tcolor,\n\t\t\t\t\t\"' />\"\n\t\t\t\t)\n\t\t\t);\n\t\t}\n\n\t\treturn string(abi.encodePacked(svgStart, svgContent, svgEnd));\n\t}\n\n\tfunction getColorString(\n\t\tPixelColor color\n\t) internal pure returns (string memory) {\n\t\tif (color == PixelColor.WHITE) {\n\t\t\treturn \"white\";\n\t\t} else if (color == PixelColor.BLUE) {\n\t\t\treturn \"blue\";\n\t\t} else {\n\t\t\treturn \"orange\";\n\t\t}\n\t}\n\n\tfunction mintCanvas() internal {\n\t\t_mint(address(this), tokenIdCounter);\n\t}\n\n\tfunction startAuction() internal {\n\t\trequire(!auctionStarted, \"Auction already started\");\n\t\tauctionStarted = true;\n\t\tauctionEndTime = block.timestamp + 7 days;\n\n\t\temit AuctionStarted(auctionEndTime);\n\t}\n\n\tfunction bid() external payable {\n\t\trequire(auctionStarted, \"Auction has not started\");\n\t\trequire(block.timestamp <= auctionEndTime, \"Auction has ended\");\n\t\trequire(msg.value > highestBid, \"Bid is too low\");\n\n\t\tif (highestBidder != address(0)) {\n\t\t\tpayable(highestBidder).transfer(highestBid);\n\t\t}\n\n\t\thighestBid = msg.value;\n\t\thighestBidder = msg.sender;\n\n\t\temit BidPlaced(msg.sender, msg.value);\n\t}\n\n\tfunction endAuction() external {\n\t\trequire(auctionStarted, \"Auction not started\");\n\t\trequire(block.timestamp >= auctionEndTime, \"Auction not ended yet\");\n\t\trequire(!auctionEnded, \"Auction already ended\");\n\n\t\tauctionEnded = true;\n\t\tcanvasWinner = highestBidder;\n\n\t\t_transfer(address(this), highestBidder, tokenIdCounter);\n\t\tpayable(owner()).transfer(highestBid);\n\n\t\temit AuctionEnded(highestBidder, highestBid);\n\t}\n\n\t// Withdraw function for the contract owner to withdraw funds\n\tfunction withdraw() external onlyOwner {\n\t\tpayable(owner()).transfer(address(this).balance);\n\t}\n}\n",
  "sourcePath": "/Users/zafeirious/Desktop/nft-collection/contracts/CanvasContract.sol",
  "compiler": {
    "name": "solc",
    "version": "0.8.19+commit.7dd6d404.Emscripten.clang"
  },
  "schemaVersion": "3.4.16",
  "updatedAt": "2024-10-18T10:38:04.380Z",
  "networkType": "ethereum",
  "devdoc": {
    "events": {
      "Approval(address,address,uint256)": {
        "details": "Emitted when `owner` enables `approved` to manage the `tokenId` token."
      },
      "ApprovalForAll(address,address,bool)": {
        "details": "Emitted when `owner` enables or disables (`approved`) `operator` to manage all of its assets."
      },
      "Transfer(address,address,uint256)": {
        "details": "Emitted when `tokenId` token is transferred from `from` to `to`."
      }
    },
    "kind": "dev",
    "methods": {
      "approve(address,uint256)": {
        "details": "See {IERC721-approve}."
      },
      "balanceOf(address)": {
        "details": "See {IERC721-balanceOf}."
      },
      "getApproved(uint256)": {
        "details": "See {IERC721-getApproved}."
      },
      "isApprovedForAll(address,address)": {
        "details": "See {IERC721-isApprovedForAll}."
      },
      "name()": {
        "details": "See {IERC721Metadata-name}."
      },
      "owner()": {
        "details": "Returns the address of the current owner."
      },
      "ownerOf(uint256)": {
        "details": "See {IERC721-ownerOf}."
      },
      "renounceOwnership()": {
        "details": "Leaves the contract without owner. It will not be possible to call `onlyOwner` functions. Can only be called by the current owner. NOTE: Renouncing ownership will leave the contract without an owner, thereby disabling any functionality that is only available to the owner."
      },
      "safeTransferFrom(address,address,uint256)": {
        "details": "See {IERC721-safeTransferFrom}."
      },
      "safeTransferFrom(address,address,uint256,bytes)": {
        "details": "See {IERC721-safeTransferFrom}."
      },
      "setApprovalForAll(address,bool)": {
        "details": "See {IERC721-setApprovalForAll}."
      },
      "supportsInterface(bytes4)": {
        "details": "See {IERC165-supportsInterface}."
      },
      "symbol()": {
        "details": "See {IERC721Metadata-symbol}."
      },
      "tokenURI(uint256)": {
        "details": "See {IERC721Metadata-tokenURI}."
      },
      "transferFrom(address,address,uint256)": {
        "details": "See {IERC721-transferFrom}."
      },
      "transferOwnership(address)": {
        "details": "Transfers ownership of the contract to a new account (`newOwner`). Can only be called by the current owner."
      }
    },
    "version": 1
  },
  "userdoc": {
    "kind": "user",
    "methods": {},
    "version": 1
  }
}