{
  "contractName": "Choice",
  "abi": [
    {
      "inputs": [
        {
          "internalType": "address",
          "name": "_canvasContract",
          "type": "address"
        }
      ],
      "stateMutability": "nonpayable",
      "type": "constructor"
    },
    {
      "anonymous": false,
      "inputs": [
        {
          "indexed": true,
          "internalType": "address",
          "name": "owner",
          "type": "address"
        },
        {
          "indexed": true,
          "internalType": "address",
          "name": "approved",
          "type": "address"
        },
        {
          "indexed": true,
          "internalType": "uint256",
          "name": "tokenId",
          "type": "uint256"
        }
      ],
      "name": "Approval",
      "type": "event"
    },
    {
      "anonymous": false,
      "inputs": [
        {
          "indexed": true,
          "internalType": "address",
          "name": "owner",
          "type": "address"
        },
        {
          "indexed": true,
          "internalType": "address",
          "name": "operator",
          "type": "address"
        },
        {
          "indexed": false,
          "internalType": "bool",
          "name": "approved",
          "type": "bool"
        }
      ],
      "name": "ApprovalForAll",
      "type": "event"
    },
    {
      "anonymous": false,
      "inputs": [
        {
          "indexed": false,
          "internalType": "uint256",
          "name": "_fromTokenId",
          "type": "uint256"
        },
        {
          "indexed": false,
          "internalType": "uint256",
          "name": "_toTokenId",
          "type": "uint256"
        }
      ],
      "name": "BatchMetadataUpdate",
      "type": "event"
    },
    {
      "anonymous": false,
      "inputs": [
        {
          "indexed": false,
          "internalType": "uint256",
          "name": "_tokenId",
          "type": "uint256"
        }
      ],
      "name": "MetadataUpdate",
      "type": "event"
    },
    {
      "anonymous": false,
      "inputs": [
        {
          "indexed": true,
          "internalType": "address",
          "name": "previousOwner",
          "type": "address"
        },
        {
          "indexed": true,
          "internalType": "address",
          "name": "newOwner",
          "type": "address"
        }
      ],
      "name": "OwnershipTransferred",
      "type": "event"
    },
    {
      "anonymous": false,
      "inputs": [
        {
          "indexed": true,
          "internalType": "address",
          "name": "from",
          "type": "address"
        },
        {
          "indexed": true,
          "internalType": "address",
          "name": "to",
          "type": "address"
        },
        {
          "indexed": true,
          "internalType": "uint256",
          "name": "tokenId",
          "type": "uint256"
        }
      ],
      "name": "Transfer",
      "type": "event"
    },
    {
      "inputs": [
        {
          "internalType": "address",
          "name": "to",
          "type": "address"
        },
        {
          "internalType": "uint256",
          "name": "tokenId",
          "type": "uint256"
        }
      ],
      "name": "approve",
      "outputs": [],
      "stateMutability": "nonpayable",
      "type": "function"
    },
    {
      "inputs": [
        {
          "internalType": "address",
          "name": "owner",
          "type": "address"
        }
      ],
      "name": "balanceOf",
      "outputs": [
        {
          "internalType": "uint256",
          "name": "",
          "type": "uint256"
        }
      ],
      "stateMutability": "view",
      "type": "function",
      "constant": true
    },
    {
      "inputs": [],
      "name": "canvasContract",
      "outputs": [
        {
          "internalType": "contract CanvasContract",
          "name": "",
          "type": "address"
        }
      ],
      "stateMutability": "view",
      "type": "function",
      "constant": true
    },
    {
      "inputs": [
        {
          "internalType": "uint256",
          "name": "tokenId",
          "type": "uint256"
        }
      ],
      "name": "getApproved",
      "outputs": [
        {
          "internalType": "address",
          "name": "",
          "type": "address"
        }
      ],
      "stateMutability": "view",
      "type": "function",
      "constant": true
    },
    {
      "inputs": [
        {
          "internalType": "address",
          "name": "owner",
          "type": "address"
        },
        {
          "internalType": "address",
          "name": "operator",
          "type": "address"
        }
      ],
      "name": "isApprovedForAll",
      "outputs": [
        {
          "internalType": "bool",
          "name": "",
          "type": "bool"
        }
      ],
      "stateMutability": "view",
      "type": "function",
      "constant": true
    },
    {
      "inputs": [],
      "name": "maxSupply",
      "outputs": [
        {
          "internalType": "uint256",
          "name": "",
          "type": "uint256"
        }
      ],
      "stateMutability": "view",
      "type": "function",
      "constant": true
    },
    {
      "inputs": [],
      "name": "mintPrice",
      "outputs": [
        {
          "internalType": "uint256",
          "name": "",
          "type": "uint256"
        }
      ],
      "stateMutability": "view",
      "type": "function",
      "constant": true
    },
    {
      "inputs": [],
      "name": "name",
      "outputs": [
        {
          "internalType": "string",
          "name": "",
          "type": "string"
        }
      ],
      "stateMutability": "view",
      "type": "function",
      "constant": true
    },
    {
      "inputs": [],
      "name": "owner",
      "outputs": [
        {
          "internalType": "address",
          "name": "",
          "type": "address"
        }
      ],
      "stateMutability": "view",
      "type": "function",
      "constant": true
    },
    {
      "inputs": [
        {
          "internalType": "uint256",
          "name": "tokenId",
          "type": "uint256"
        }
      ],
      "name": "ownerOf",
      "outputs": [
        {
          "internalType": "address",
          "name": "",
          "type": "address"
        }
      ],
      "stateMutability": "view",
      "type": "function",
      "constant": true
    },
    {
      "inputs": [],
      "name": "renounceOwnership",
      "outputs": [],
      "stateMutability": "nonpayable",
      "type": "function"
    },
    {
      "inputs": [
        {
          "internalType": "address",
          "name": "from",
          "type": "address"
        },
        {
          "internalType": "address",
          "name": "to",
          "type": "address"
        },
        {
          "internalType": "uint256",
          "name": "tokenId",
          "type": "uint256"
        }
      ],
      "name": "safeTransferFrom",
      "outputs": [],
      "stateMutability": "nonpayable",
      "type": "function"
    },
    {
      "inputs": [
        {
          "internalType": "address",
          "name": "from",
          "type": "address"
        },
        {
          "internalType": "address",
          "name": "to",
          "type": "address"
        },
        {
          "internalType": "uint256",
          "name": "tokenId",
          "type": "uint256"
        },
        {
          "internalType": "bytes",
          "name": "data",
          "type": "bytes"
        }
      ],
      "name": "safeTransferFrom",
      "outputs": [],
      "stateMutability": "nonpayable",
      "type": "function"
    },
    {
      "inputs": [
        {
          "internalType": "address",
          "name": "operator",
          "type": "address"
        },
        {
          "internalType": "bool",
          "name": "approved",
          "type": "bool"
        }
      ],
      "name": "setApprovalForAll",
      "outputs": [],
      "stateMutability": "nonpayable",
      "type": "function"
    },
    {
      "inputs": [
        {
          "internalType": "bytes4",
          "name": "interfaceId",
          "type": "bytes4"
        }
      ],
      "name": "supportsInterface",
      "outputs": [
        {
          "internalType": "bool",
          "name": "",
          "type": "bool"
        }
      ],
      "stateMutability": "view",
      "type": "function",
      "constant": true
    },
    {
      "inputs": [],
      "name": "symbol",
      "outputs": [
        {
          "internalType": "string",
          "name": "",
          "type": "string"
        }
      ],
      "stateMutability": "view",
      "type": "function",
      "constant": true
    },
    {
      "inputs": [
        {
          "internalType": "uint256",
          "name": "tokenId",
          "type": "uint256"
        }
      ],
      "name": "tokenURI",
      "outputs": [
        {
          "internalType": "string",
          "name": "",
          "type": "string"
        }
      ],
      "stateMutability": "view",
      "type": "function",
      "constant": true
    },
    {
      "inputs": [],
      "name": "totalMinted",
      "outputs": [
        {
          "internalType": "uint256",
          "name": "",
          "type": "uint256"
        }
      ],
      "stateMutability": "view",
      "type": "function",
      "constant": true
    },
    {
      "inputs": [
        {
          "internalType": "address",
          "name": "from",
          "type": "address"
        },
        {
          "internalType": "address",
          "name": "to",
          "type": "address"
        },
        {
          "internalType": "uint256",
          "name": "tokenId",
          "type": "uint256"
        }
      ],
      "name": "transferFrom",
      "outputs": [],
      "stateMutability": "nonpayable",
      "type": "function"
    },
    {
      "inputs": [
        {
          "internalType": "address",
          "name": "newOwner",
          "type": "address"
        }
      ],
      "name": "transferOwnership",
      "outputs": [],
      "stateMutability": "nonpayable",
      "type": "function"
    },
    {
      "inputs": [
        {
          "internalType": "string[]",
          "name": "grid",
          "type": "string[]"
        }
      ],
      "name": "mintToken",
      "outputs": [],
      "stateMutability": "payable",
      "type": "function",
      "payable": true
    },
    {
      "inputs": [
        {
          "internalType": "uint256",
          "name": "tokenId",
          "type": "uint256"
        },
        {
          "internalType": "string[]",
          "name": "grid",
          "type": "string[]"
        }
      ],
      "name": "generateTokenURI",
      "outputs": [
        {
          "internalType": "string",
          "name": "",
          "type": "string"
        }
      ],
      "stateMutability": "view",
      "type": "function",
      "constant": true
    },
    {
      "inputs": [],
      "name": "withdraw",
      "outputs": [],
      "stateMutability": "nonpayable",
      "type": "function"
    }
  ],
  "bytecode": "0x6080604052600a6008556000600955670de0b6b3a7640000600a553480156200002757600080fd5b50604051620026fe380380620026fe8339810160408190526200004a9162000141565b6040518060400160405280600981526020016810da1bda58d953919560ba1b8152506040518060400160405280600381526020016243484360e81b815250816000908162000099919062000218565b506001620000a8828262000218565b505050620000c5620000bf620000eb60201b60201c565b620000ef565b600b80546001600160a01b0319166001600160a01b0392909216919091179055620002e4565b3390565b600780546001600160a01b038381166001600160a01b0319831681179093556040519116919082907f8be0079c531659141344cd1fd0a4f28419497f9722a3daafe3b4186f6b6457e090600090a35050565b6000602082840312156200015457600080fd5b81516001600160a01b03811681146200016c57600080fd5b9392505050565b634e487b7160e01b600052604160045260246000fd5b600181811c908216806200019e57607f821691505b602082108103620001bf57634e487b7160e01b600052602260045260246000fd5b50919050565b601f8211156200021357600081815260208120601f850160051c81016020861015620001ee5750805b601f850160051c820191505b818110156200020f57828155600101620001fa565b5050505b505050565b81516001600160401b0381111562000234576200023462000173565b6200024c8162000245845462000189565b84620001c5565b602080601f8311600181146200028457600084156200026b5750858301515b600019600386901b1c1916600185901b1785556200020f565b600085815260208120601f198616915b82811015620002b55788860151825594840194600190910190840162000294565b5085821015620002d45787850151600019600388901b60f8161c191681555b5050505050600190811b01905550565b61240a80620002f46000396000f3fe6080604052600436106101405760003560e01c8063715018a6116100b6578063bed210b41161006f578063bed210b41461036d578063c87b56dd1461038d578063d5abeb01146103ad578063d89ae08b146103c3578063e985e9c5146103d6578063f2fde38b1461041f57600080fd5b8063715018a6146102cf5780638da5cb5b146102e457806395d89b4114610302578063a22cb46514610317578063a2309ff814610337578063b88d4fde1461034d57600080fd5b80633ccfd60b116101085780633ccfd60b1461021657806342842e0e1461022b5780635cfe716a1461024b5780636352211e1461026b5780636817c76c1461028b57806370a08231146102af57600080fd5b806301ffc9a71461014557806306fdde031461017a578063081812fc1461019c578063095ea7b3146101d457806323b872dd146101f6575b600080fd5b34801561015157600080fd5b506101656101603660046119a3565b61043f565b60405190151581526020015b60405180910390f35b34801561018657600080fd5b5061018f61046a565b6040516101719190611a10565b3480156101a857600080fd5b506101bc6101b7366004611a23565b6104fc565b6040516001600160a01b039091168152602001610171565b3480156101e057600080fd5b506101f46101ef366004611a58565b610523565b005b34801561020257600080fd5b506101f4610211366004611a82565b61063d565b34801561022257600080fd5b506101f461066e565b34801561023757600080fd5b506101f4610246366004611a82565b6106b2565b34801561025757600080fd5b5061018f610266366004611c11565b6106cd565b34801561027757600080fd5b506101bc610286366004611a23565b6107c1565b34801561029757600080fd5b506102a1600a5481565b604051908152602001610171565b3480156102bb57600080fd5b506102a16102ca366004611c58565b610821565b3480156102db57600080fd5b506101f46108a7565b3480156102f057600080fd5b506007546001600160a01b03166101bc565b34801561030e57600080fd5b5061018f6108bb565b34801561032357600080fd5b506101f4610332366004611c73565b6108ca565b34801561034357600080fd5b506102a160095481565b34801561035957600080fd5b506101f4610368366004611caf565b6108d9565b34801561037957600080fd5b50600b546101bc906001600160a01b031681565b34801561039957600080fd5b5061018f6103a8366004611a23565b610911565b3480156103b957600080fd5b506102a160085481565b6101f46103d1366004611d2b565b610a21565b3480156103e257600080fd5b506101656103f1366004611d60565b6001600160a01b03918216600090815260056020908152604080832093909416825291909152205460ff1690565b34801561042b57600080fd5b506101f461043a366004611c58565b610bb1565b60006001600160e01b03198216632483248360e11b1480610464575061046482610c27565b92915050565b60606000805461047990611d93565b80601f01602080910402602001604051908101604052809291908181526020018280546104a590611d93565b80156104f25780601f106104c7576101008083540402835291602001916104f2565b820191906000526020600020905b8154815290600101906020018083116104d557829003601f168201915b5050505050905090565b600061050782610c77565b506000908152600460205260409020546001600160a01b031690565b600061052e826107c1565b9050806001600160a01b0316836001600160a01b0316036105a05760405162461bcd60e51b815260206004820152602160248201527f4552433732313a20617070726f76616c20746f2063757272656e74206f776e656044820152603960f91b60648201526084015b60405180910390fd5b336001600160a01b03821614806105bc57506105bc81336103f1565b61062e5760405162461bcd60e51b815260206004820152603d60248201527f4552433732313a20617070726f76652063616c6c6572206973206e6f7420746f60448201527f6b656e206f776e6572206f7220617070726f76656420666f7220616c6c0000006064820152608401610597565b6106388383610cd6565b505050565b6106473382610d44565b6106635760405162461bcd60e51b815260040161059790611dcd565b610638838383610dc2565b610676610f26565b6007546040516001600160a01b03909116904780156108fc02916000818181858888f193505050501580156106af573d6000803e3d6000fd5b50565b610638838383604051806020016040528060008152506108d9565b6000828152600260205260409020546060906001600160a01b031661074c5760405162461bcd60e51b815260206004820152602f60248201527f4552433732314d657461646174613a2055524920717565727920666f72206e6f60448201526e3732bc34b9ba32b73a103a37b5b2b760891b6064820152608401610597565b600061075783610f80565b9050600061079561076786611157565b610770846111ea565b604051602001610781929190611e1a565b6040516020818303038152906040526111ea565b9050806040516020016107a89190611ef0565b6040516020818303038152906040529250505092915050565b6000818152600260205260408120546001600160a01b0316806104645760405162461bcd60e51b8152602060048201526018602482015277115490cdcc8c4e881a5b9d985b1a59081d1bdad95b88125160421b6044820152606401610597565b60006001600160a01b03821661088b5760405162461bcd60e51b815260206004820152602960248201527f4552433732313a2061646472657373207a65726f206973206e6f7420612076616044820152683634b21037bbb732b960b91b6064820152608401610597565b506001600160a01b031660009081526003602052604090205490565b6108af610f26565b6108b9600061134a565b565b60606001805461047990611d93565b6108d533838361139c565b5050565b6108e33383610d44565b6108ff5760405162461bcd60e51b815260040161059790611dcd565b61090b8484848461146a565b50505050565b606061091c82610c77565b6000828152600660205260408120805461093590611d93565b80601f016020809104026020016040519081016040528092919081815260200182805461096190611d93565b80156109ae5780601f10610983576101008083540402835291602001916109ae565b820191906000526020600020905b81548152906001019060200180831161099157829003601f168201915b5050505050905060006109cc60408051602081019091526000815290565b905080516000036109de575092915050565b815115610a105780826040516020016109f8929190611f35565b60405160208183030381529060405292505050919050565b610a198461149d565b949350505050565b60085460095410610a695760405162461bcd60e51b815260206004820152601260248201527113585e081cdd5c1c1b1e481c995858da195960721b6044820152606401610597565b8051602814610aba5760405162461bcd60e51b815260206004820152601b60248201527f47726964206d75737420626520387835202834302063656c6c732900000000006044820152606401610597565b600a54341015610b0c5760405162461bcd60e51b815260206004820152601860248201527f496e73756666696369656e742045544820746f206d696e7400000000000000006044820152606401610597565b60098054906001906000610b208385611f7a565b90915550610b3090503382611511565b6000610b3c82846106cd565b9050610b48828261152b565b600b54604051632a7ab0f960e21b8152600481018490523360248201526001600160a01b039091169063a9eac3e490604401600060405180830381600087803b158015610b9457600080fd5b505af1158015610ba8573d6000803e3d6000fd5b50505050505050565b610bb9610f26565b6001600160a01b038116610c1e5760405162461bcd60e51b815260206004820152602660248201527f4f776e61626c653a206e6577206f776e657220697320746865207a65726f206160448201526564647265737360d01b6064820152608401610597565b6106af8161134a565b60006001600160e01b031982166380ac58cd60e01b1480610c5857506001600160e01b03198216635b5e139f60e01b145b8061046457506301ffc9a760e01b6001600160e01b0319831614610464565b6000818152600260205260409020546001600160a01b03166106af5760405162461bcd60e51b8152602060048201526018602482015277115490cdcc8c4e881a5b9d985b1a59081d1bdad95b88125160421b6044820152606401610597565b600081815260046020526040902080546001600160a01b0319166001600160a01b0384169081179091558190610d0b826107c1565b6001600160a01b03167f8c5be1e5ebec7d5bd14f71427d1e84f3dd0314c0f7b2291e5b200ac8c7c3b92560405160405180910390a45050565b600080610d50836107c1565b9050806001600160a01b0316846001600160a01b03161480610d9757506001600160a01b0380821660009081526005602090815260408083209388168352929052205460ff165b80610a195750836001600160a01b0316610db0846104fc565b6001600160a01b031614949350505050565b826001600160a01b0316610dd5826107c1565b6001600160a01b031614610dfb5760405162461bcd60e51b815260040161059790611f8d565b6001600160a01b038216610e5d5760405162461bcd60e51b8152602060048201526024808201527f4552433732313a207472616e7366657220746f20746865207a65726f206164646044820152637265737360e01b6064820152608401610597565b826001600160a01b0316610e70826107c1565b6001600160a01b031614610e965760405162461bcd60e51b815260040161059790611f8d565b600081815260046020908152604080832080546001600160a01b03199081169091556001600160a01b0387811680865260038552838620805460001901905590871680865283862080546001019055868652600290945282852080549092168417909155905184937fddf252ad1be2c89b69c2b068fc378daa952ba7f163c4a11628f55a4df523b3ef91a4505050565b6007546001600160a01b031633146108b95760405162461bcd60e51b815260206004820181905260248201527f4f776e61626c653a2063616c6c6572206973206e6f7420746865206f776e65726044820152606401610597565b606060006040518060800160405280605b815260200161230a605b913990506000604051806040016040528060068152602001651e17b9bb339f60d11b8152509050600060405180602001604052806000815250905060006040518060600160405280603081526020016123a56030913990508181604051602001611006929190611f35565b60408051601f19818403018152919052915061015461019f603260005b8951811015611124576000848361103b600885611fe8565b6110459190611ffc565b61104f9190611f7a565b905060008484611060600886612013565b61106a9190611ffc565b6110749190611f7a565b9050604051806040016040528060018152602001600360fc1b815250805190602001208c84815181106110a9576110a9612027565b6020026020010151805190602001201461110f57876110c783611157565b6110d083611157565b8e86815181106110e2576110e2612027565b60200260200101516040516020016110fd949392919061203d565b60405160208183030381529060405297505b5050808061111c906120f3565b915050611023565b5086858760405160200161113a9392919061210c565b604051602081830303815290604052975050505050505050919050565b60606000611164836115f6565b600101905060008167ffffffffffffffff81111561118457611184611abe565b6040519080825280601f01601f1916602001820160405280156111ae576020820181803683370190505b5090508181016020015b600019016f181899199a1a9b1b9c1cb0b131b232b360811b600a86061a8153600a85049450846111b857509392505050565b6060815160000361120957505060408051602081019091526000815290565b600060405180606001604052806040815260200161236560409139905060006003845160026112389190611f7a565b6112429190612013565b61124d906004611ffc565b67ffffffffffffffff81111561126557611265611abe565b6040519080825280601f01601f19166020018201604052801561128f576020820181803683370190505b50905060018201602082018586518701602081018051600082525b82841015611305576003840193508351603f8160121c168701518653600186019550603f81600c1c168701518653600186019550603f8160061c168701518653600186019550603f81168701518653506001850194506112aa565b905250508551600390066001811461132457600281146113375761133f565b603d6001830353603d600283035361133f565b603d60018303535b509195945050505050565b600780546001600160a01b038381166001600160a01b0319831681179093556040519116919082907f8be0079c531659141344cd1fd0a4f28419497f9722a3daafe3b4186f6b6457e090600090a35050565b816001600160a01b0316836001600160a01b0316036113fd5760405162461bcd60e51b815260206004820152601960248201527f4552433732313a20617070726f766520746f2063616c6c6572000000000000006044820152606401610597565b6001600160a01b03838116600081815260056020908152604080832094871680845294825291829020805460ff191686151590811790915591519182527f17307eab39ab6107e8899845ad3d59bd9653f200f220920489ca2b5937696c31910160405180910390a3505050565b611475848484610dc2565b611481848484846116ce565b61090b5760405162461bcd60e51b81526004016105979061214f565b60606114a882610c77565b60006114bf60408051602081019091526000815290565b905060008151116114df576040518060200160405280600081525061150a565b806114e984611157565b6040516020016114fa929190611f35565b6040516020818303038152906040525b9392505050565b6108d58282604051806020016040528060008152506117cf565b6000828152600260205260409020546001600160a01b03166115a65760405162461bcd60e51b815260206004820152602e60248201527f45524337323155524953746f726167653a2055524920736574206f66206e6f6e60448201526d32bc34b9ba32b73a103a37b5b2b760911b6064820152608401610597565b60008281526006602052604090206115be82826121ef565b506040518281527ff8e1a15aba9398e019f0b49df1a4fde98ee17ae345cb5f6b5e2c27f5033e8ce79060200160405180910390a15050565b60008072184f03e93ff9f4daa797ed6e38ed64bf6a1f0160401b83106116355772184f03e93ff9f4daa797ed6e38ed64bf6a1f0160401b830492506040015b6d04ee2d6d415b85acef81000000008310611661576d04ee2d6d415b85acef8100000000830492506020015b662386f26fc10000831061167f57662386f26fc10000830492506010015b6305f5e1008310611697576305f5e100830492506008015b61271083106116ab57612710830492506004015b606483106116bd576064830492506002015b600a83106104645760010192915050565b60006001600160a01b0384163b156117c457604051630a85bd0160e11b81526001600160a01b0385169063150b7a02906117129033908990889088906004016122af565b6020604051808303816000875af192505050801561174d575060408051601f3d908101601f1916820190925261174a918101906122ec565b60015b6117aa573d80801561177b576040519150601f19603f3d011682016040523d82523d6000602084013e611780565b606091505b5080516000036117a25760405162461bcd60e51b81526004016105979061214f565b805181602001fd5b6001600160e01b031916630a85bd0160e11b149050610a19565b506001949350505050565b6117d98383611802565b6117e660008484846116ce565b6106385760405162461bcd60e51b81526004016105979061214f565b6001600160a01b0382166118585760405162461bcd60e51b815260206004820181905260248201527f4552433732313a206d696e7420746f20746865207a65726f20616464726573736044820152606401610597565b6000818152600260205260409020546001600160a01b0316156118bd5760405162461bcd60e51b815260206004820152601c60248201527f4552433732313a20746f6b656e20616c7265616479206d696e746564000000006044820152606401610597565b6000818152600260205260409020546001600160a01b0316156119225760405162461bcd60e51b815260206004820152601c60248201527f4552433732313a20746f6b656e20616c7265616479206d696e746564000000006044820152606401610597565b6001600160a01b038216600081815260036020908152604080832080546001019055848352600290915280822080546001600160a01b0319168417905551839291907fddf252ad1be2c89b69c2b068fc378daa952ba7f163c4a11628f55a4df523b3ef908290a45050565b6001600160e01b0319811681146106af57600080fd5b6000602082840312156119b557600080fd5b813561150a8161198d565b60005b838110156119db5781810151838201526020016119c3565b50506000910152565b600081518084526119fc8160208601602086016119c0565b601f01601f19169290920160200192915050565b60208152600061150a60208301846119e4565b600060208284031215611a3557600080fd5b5035919050565b80356001600160a01b0381168114611a5357600080fd5b919050565b60008060408385031215611a6b57600080fd5b611a7483611a3c565b946020939093013593505050565b600080600060608486031215611a9757600080fd5b611aa084611a3c565b9250611aae60208501611a3c565b9150604084013590509250925092565b634e487b7160e01b600052604160045260246000fd5b604051601f8201601f1916810167ffffffffffffffff81118282101715611afd57611afd611abe565b604052919050565b600067ffffffffffffffff831115611b1f57611b1f611abe565b611b32601f8401601f1916602001611ad4565b9050828152838383011115611b4657600080fd5b828260208301376000602084830101529392505050565b600082601f830112611b6e57600080fd5b8135602067ffffffffffffffff80831115611b8b57611b8b611abe565b8260051b611b9a838201611ad4565b9384528581018301938381019088861115611bb457600080fd5b84880192505b85831015611c0557823584811115611bd25760008081fd5b8801603f81018a13611be45760008081fd5b611bf58a8783013560408401611b05565b8352509184019190840190611bba565b98975050505050505050565b60008060408385031215611c2457600080fd5b82359150602083013567ffffffffffffffff811115611c4257600080fd5b611c4e85828601611b5d565b9150509250929050565b600060208284031215611c6a57600080fd5b61150a82611a3c565b60008060408385031215611c8657600080fd5b611c8f83611a3c565b915060208301358015158114611ca457600080fd5b809150509250929050565b60008060008060808587031215611cc557600080fd5b611cce85611a3c565b9350611cdc60208601611a3c565b925060408501359150606085013567ffffffffffffffff811115611cff57600080fd5b8501601f81018713611d1057600080fd5b611d1f87823560208401611b05565b91505092959194509250565b600060208284031215611d3d57600080fd5b813567ffffffffffffffff811115611d5457600080fd5b610a1984828501611b5d565b60008060408385031215611d7357600080fd5b611d7c83611a3c565b9150611d8a60208401611a3c565b90509250929050565b600181811c90821680611da757607f821691505b602082108103611dc757634e487b7160e01b600052602260045260246000fd5b50919050565b6020808252602d908201527f4552433732313a2063616c6c6572206973206e6f7420746f6b656e206f776e6560408201526c1c881bdc88185c1c1c9bdd9959609a1b606082015260800190565b757b226e616d65223a202243686f696365204e4654202360501b81528251600090611e4c8160168501602088016119c0565b7f222c20226465736372697074696f6e223a20224f6e2d636861696e2067656e656016918401918201527f7261746976652053564720617274776f726b2e222c2022696d616765223a202260368201527f646174613a696d6167652f7376672b786d6c3b6261736536342c00000000000060568201528351611ed58160708401602088016119c0565b61227d60f01b60709290910191820152607201949350505050565b7f646174613a6170706c69636174696f6e2f6a736f6e3b6261736536342c000000815260008251611f2881601d8501602087016119c0565b91909101601d0192915050565b60008351611f478184602088016119c0565b835190830190611f5b8183602088016119c0565b01949350505050565b634e487b7160e01b600052601160045260246000fd5b8082018082111561046457610464611f64565b60208082526025908201527f4552433732313a207472616e736665722066726f6d20696e636f72726563742060408201526437bbb732b960d91b606082015260800190565b634e487b7160e01b600052601260045260246000fd5b600082611ff757611ff7611fd2565b500690565b808202811582820484141761046457610464611f64565b60008261202257612022611fd2565b500490565b634e487b7160e01b600052603260045260246000fd5b6000855160206120508285838b016119c0565b7f3c726563742077696474683d27353027206865696768743d2735302720783d27918401918252865161208881838501848b016119c0565b642720793d2760d81b92018181019290925285516120ac81602585018985016119c0565b67272066696c6c3d2760c01b6025939091019283015284516120d481602d85018489016119c0565b6213979f60e91b920101600d8101919091526010019695505050505050565b60006001820161210557612105611f64565b5060010190565b6000845161211e8184602089016119c0565b8451908301906121328183602089016119c0565b84519101906121458183602088016119c0565b0195945050505050565b60208082526032908201527f4552433732313a207472616e7366657220746f206e6f6e20455243373231526560408201527131b2b4bb32b91034b6b83632b6b2b73a32b960711b606082015260800190565b601f82111561063857600081815260208120601f850160051c810160208610156121c85750805b601f850160051c820191505b818110156121e7578281556001016121d4565b505050505050565b815167ffffffffffffffff81111561220957612209611abe565b61221d816122178454611d93565b846121a1565b602080601f831160018114612252576000841561223a5750858301515b600019600386901b1c1916600185901b1785556121e7565b600085815260208120601f198616915b8281101561228157888601518255948401946001909101908401612262565b508582101561229f5787850151600019600388901b60f8161c191681555b5050505050600190811b01905550565b6001600160a01b03858116825284166020820152604081018390526080606082018190526000906122e2908301846119e4565b9695505050505050565b6000602082840312156122fe57600080fd5b815161150a8161198d56fe3c73766720786d6c6e733d27687474703a2f2f7777772e77332e6f72672f323030302f737667272076696577426f783d2730203020313038302031303830272077696474683d273130383027206865696768743d2731303830273e4142434445464748494a4b4c4d4e4f505152535455565758595a6162636465666768696a6b6c6d6e6f707172737475767778797a303132333435363738392b2f3c726563742077696474683d273130383027206865696768743d2731303830272066696c6c3d27626c61636b27202f3ea264697066735822122086ef53766845e99e18f8a6b13bc27c31d57e338b9ba64ddf4ad54e5f5a5d178264736f6c63430008130033",
  "immutableReferences": {},
  "source": "// SPDX-License-Identifier: MIT\npragma solidity ^0.8.0;\n\nimport \"@openzeppelin/contracts/token/ERC721/extensions/ERC721URIStorage.sol\";\nimport \"@openzeppelin/contracts/access/Ownable.sol\";\nimport \"./DynamicBuffer.sol\";\nimport \"@openzeppelin/contracts/utils/Base64.sol\";\nimport \"./CanvasContract.sol\";\n\ncontract Choice is ERC721URIStorage, Ownable {\n\tusing DynamicBuffer for bytes;\n\n\tuint256 public maxSupply = 10;\n\tuint256 public totalMinted = 0;\n\tuint256 public mintPrice = 1 ether; // Mint price is set to 1 ETH\n\n\tCanvasContract public canvasContract;\n\n\tconstructor(address _canvasContract) ERC721(\"ChoiceNFT\", \"CHC\") {\n\t\tcanvasContract = CanvasContract(_canvasContract);\n\t}\n\n\tfunction mintToken(string[] memory grid) public payable {\n\t\trequire(totalMinted < maxSupply, \"Max supply reached\");\n\t\trequire(grid.length == 40, \"Grid must be 8x5 (40 cells)\");\n\t\trequire(msg.value >= mintPrice, \"Insufficient ETH to mint\");\n\n\t\tuint256 tokenId = totalMinted;\n\t\ttotalMinted += 1;\n\n\t\t_safeMint(msg.sender, tokenId);\n\n\t\tstring memory tokenURIData = generateTokenURI(tokenId, grid);\n\t\t_setTokenURI(tokenId, tokenURIData);\n\n\t\tcanvasContract.addPixel(tokenId, msg.sender);\n\t}\n\n\tfunction generateTokenURI(\n\t\tuint256 tokenId,\n\t\tstring[] memory grid\n\t) public view returns (string memory) {\n\t\trequire(\n\t\t\t_exists(tokenId),\n\t\t\t\"ERC721Metadata: URI query for nonexistent token\"\n\t\t);\n\n\t\tstring memory svgImage = generateSVG(grid);\n\n\t\tstring memory json = Base64.encode(\n\t\t\tbytes(\n\t\t\t\tstring(\n\t\t\t\t\tabi.encodePacked(\n\t\t\t\t\t\t'{\"name\": \"Choice NFT #',\n\t\t\t\t\t\tStrings.toString(tokenId),\n\t\t\t\t\t\t'\", \"description\": \"On-chain generative SVG artwork.\", \"image\": \"data:image/svg+xml;base64,',\n\t\t\t\t\t\tBase64.encode(bytes(svgImage)),\n\t\t\t\t\t\t'\"}'\n\t\t\t\t\t)\n\t\t\t\t)\n\t\t\t)\n\t\t);\n\n\t\treturn string(abi.encodePacked(\"data:application/json;base64,\", json));\n\t}\n\n\tfunction generateSVG(\n\t\tstring[] memory grid\n\t) internal pure returns (string memory) {\n\t\tstring\n\t\t\tmemory svgStart = \"<svg xmlns='http://www.w3.org/2000/svg' viewBox='0 0 1080 1080' width='1080' height='1080'>\";\n\t\tstring memory svgEnd = \"</svg>\";\n\t\tstring memory svgContent = \"\";\n\n\t\tstring\n\t\t\tmemory backgroundRect = \"<rect width='1080' height='1080' fill='black' />\";\n\t\tsvgContent = string(abi.encodePacked(svgContent, backgroundRect));\n\n\t\tuint256 xOffset = (1080 - 400) / 2;\n\t\tuint256 yOffset = (1080 - 250) / 2;\n\t\tuint256 cellSize = 50;\n\n\t\tfor (uint256 i = 0; i < grid.length; i++) {\n\t\t\tuint256 x = (i % 8) * cellSize + xOffset;\n\t\t\tuint256 y = (i / 8) * cellSize + yOffset;\n\n\t\t\tif (keccak256(bytes(grid[i])) != keccak256(bytes(\"0\"))) {\n\t\t\t\tsvgContent = string(\n\t\t\t\t\tabi.encodePacked(\n\t\t\t\t\t\tsvgContent,\n\t\t\t\t\t\t\"<rect width='50' height='50' x='\",\n\t\t\t\t\t\tStrings.toString(x),\n\t\t\t\t\t\t\"' y='\",\n\t\t\t\t\t\tStrings.toString(y),\n\t\t\t\t\t\t\"' fill='\",\n\t\t\t\t\t\tgrid[i],\n\t\t\t\t\t\t\"'/>\"\n\t\t\t\t\t)\n\t\t\t\t);\n\t\t\t}\n\t\t}\n\n\t\treturn string(abi.encodePacked(svgStart, svgContent, svgEnd));\n\t}\n\n\t// Withdraw function to allow the owner to withdraw funds from the contract\n\tfunction withdraw() external onlyOwner {\n\t\tpayable(owner()).transfer(address(this).balance);\n\t}\n}\n",
  "sourcePath": "/Users/zafeirious/Desktop/nft-collection/contracts/Choice.sol",
  "compiler": {
    "name": "solc",
    "version": "0.8.19+commit.7dd6d404.Emscripten.clang"
  },
  "schemaVersion": "3.4.16",
  "updatedAt": "2024-10-18T10:38:04.372Z",
  "networkType": "ethereum",
  "devdoc": {
    "events": {
      "Approval(address,address,uint256)": {
        "details": "Emitted when `owner` enables `approved` to manage the `tokenId` token."
      },
      "ApprovalForAll(address,address,bool)": {
        "details": "Emitted when `owner` enables or disables (`approved`) `operator` to manage all of its assets."
      },
      "BatchMetadataUpdate(uint256,uint256)": {
        "details": "This event emits when the metadata of a range of tokens is changed. So that the third-party platforms such as NFT market could timely update the images and related attributes of the NFTs."
      },
      "MetadataUpdate(uint256)": {
        "details": "This event emits when the metadata of a token is changed. So that the third-party platforms such as NFT market could timely update the images and related attributes of the NFT."
      },
      "Transfer(address,address,uint256)": {
        "details": "Emitted when `tokenId` token is transferred from `from` to `to`."
      }
    },
    "kind": "dev",
    "methods": {
      "approve(address,uint256)": {
        "details": "See {IERC721-approve}."
      },
      "balanceOf(address)": {
        "details": "See {IERC721-balanceOf}."
      },
      "getApproved(uint256)": {
        "details": "See {IERC721-getApproved}."
      },
      "isApprovedForAll(address,address)": {
        "details": "See {IERC721-isApprovedForAll}."
      },
      "name()": {
        "details": "See {IERC721Metadata-name}."
      },
      "owner()": {
        "details": "Returns the address of the current owner."
      },
      "ownerOf(uint256)": {
        "details": "See {IERC721-ownerOf}."
      },
      "renounceOwnership()": {
        "details": "Leaves the contract without owner. It will not be possible to call `onlyOwner` functions. Can only be called by the current owner. NOTE: Renouncing ownership will leave the contract without an owner, thereby disabling any functionality that is only available to the owner."
      },
      "safeTransferFrom(address,address,uint256)": {
        "details": "See {IERC721-safeTransferFrom}."
      },
      "safeTransferFrom(address,address,uint256,bytes)": {
        "details": "See {IERC721-safeTransferFrom}."
      },
      "setApprovalForAll(address,bool)": {
        "details": "See {IERC721-setApprovalForAll}."
      },
      "supportsInterface(bytes4)": {
        "details": "See {IERC165-supportsInterface}"
      },
      "symbol()": {
        "details": "See {IERC721Metadata-symbol}."
      },
      "tokenURI(uint256)": {
        "details": "See {IERC721Metadata-tokenURI}."
      },
      "transferFrom(address,address,uint256)": {
        "details": "See {IERC721-transferFrom}."
      },
      "transferOwnership(address)": {
        "details": "Transfers ownership of the contract to a new account (`newOwner`). Can only be called by the current owner."
      }
    },
    "version": 1
  },
  "userdoc": {
    "kind": "user",
    "methods": {},
    "version": 1
  }
}